:100000000C942A000C9447000C9447000C94470071
:100010000C9447000C9447000C9447000C94470044
:100020000C9447000C9447000C9447000C94470034
:100030000C9447000C94AC050C9447000C944700BA
:100040000C9447000C9447000C9447000C94470014
:100050000C94470011241FBECFE5D8E0DEBFCDBF12
:1000600013E0A0E6B0E0E6E0FBE102C005900D92EF
:10007000AC34B107D9F714E0ACE4B3E001C01D9291
:10008000AE30B107E1F70E94DF060C94810D0C94AD
:10009000000087B3807F87BB969A939882E08A9509
:1000A000F1F700C0C49A92E09A95F1F700C086B3C8
:1000B0008295807F92E09A95F1F700C0C49895E010
:1000C0009A95F1F70000C49A92E09A95F1F700C072
:1000D00096B392E09A95F1F700C0C49895E09A958E
:1000E000F1F7000087FDDECF969887B38F6087BB5E
:1000F0000895282F22952F708F70662321F1939AEF
:1001000092E09A95F1F700C0C49A98B3907F922B31
:1001100098BB95E09A95F1F70000C49895E09A9500
:10012000F1F70000C49A98B3907F982B98BB85E0B4
:100130008A95F1F70000C49895E09A95F1F70000D0
:100140000E94490008959398DBCF0F931F93CF939C
:10015000DF938C01FC0180818823B9F422C0E8017F
:100160002196F80181818053883030F085E261E08A
:100170000E947900F801818161E00E9479008E017E
:100180000F5F1F4F8981882361F0853241F361E061
:100190000E947900E8018E010F5F1F4F898188233B
:1001A000A1F7DF91CF911F910F910895CF92DF9228
:1001B000EF92FF920F931F93CF93DF9300D000D065
:1001C0000F92CDB7DEB77B016E010894C11CD11C24
:1001D00025E0F60111922A95E9F7009759F0FE0102
:1001E00036962AE030E0B9010E94F8098293CB01EB
:1001F0000097C9F7FFEFEF16FFEFFF0659F105E093
:1002000010E00E191F0905301105B4F4F601E00FD6
:10021000F11F80810F5F1F4F7601E00EF11E05C0B8
:10022000F70181917F010F5F1F4F805D61E00E94A8
:10023000790005301105A4F30F900F900F900F90E7
:100240000F90DF91CF911F910F91FF90EF90DF9072
:10025000CF9008958981882351F4FE01329600E001
:1002600010E00F5F1F4F81918823D9F3CCCF00E0BE
:1002700010E0D0CF843158F4623051F0633071F027
:10028000613009F48064806860E00E94790008951C
:100290008C5E806860E00E947900F9CF8C5A80689B
:1002A00060E00E947900F3CF0F931F93CF93DF9309
:1002B0000F92CDB7DEB72FEF36E741E02150304047
:1002C0004040E1F700C0000097B39F6097BBBC9A25
:1002D0008B9A8E9A98B3907F98BBC498969893986F
:1002E00000C000C00000C49AC19A35E03A95F1F709
:1002F0000000C49845E04A95F1F7000089830E9408
:10030000490089818C6060E00E94790088E260E0A9
:100310000E94790080E460E00E94790000E610E02D
:10032000F80181918F0161E00E947900F0E0003ACC
:100330001F07B1F780E060E00E943A010F90DF9163
:10034000CF911F910F910895FF920F931F93CF9319
:10035000DF93082FC92F0E9451068DE00E942B06C3
:10036000E02FFC2FDF010D900020E9F7FA2EF01AA4
:100370008F2D90E08C01000F111F880F991F880F9F
:10038000991F880F991F080F191F0115110581F07A
:10039000C0E0D0E00E942F068F1588F421968FE3ED
:1003A0009CE90197F1F700C00000C017D10791F751
:1003B0008DEFDF91CF911F910F91FF9008958EE8FF
:1003C00093E06F2D70E00E945D0681E0DF91CF9198
:1003D0001F910F91FF900895FC0181818A3011F0E7
:1003E0008FEF089580818D30D9F7842F8250DF01FF
:1003F000A80FB11D11969C9111979A3089F79C9185
:100400009D3071F7833088F09281DB018C919817D1
:1004100081F433961196455080E005C021919D915D
:100420008F5F291721F48417C9F781E008958EEFB3
:1004300008958EEF0895CF93DF9387E690E00E94B2
:100440009F0580EA90E00E94A401CAE0D0E00E94EB
:100450002F06863060F48FE39CE90197F1F700C026
:1004600000002197A1F78DEFDF91CF9108958EE8DD
:1004700093E066E070E00E945D068EE893E063EA38
:1004800070E046E00E94EC01DF91CF910895FF9269
:100490000F931F93CF93DF938C01C0E0D0E0FF2434
:1004A0000E942F06882319F4C017D107D0F0C01777
:1004B000D107F9F00E940406EF2DF0E0E257FC4F5F
:1004C00080838D3011F0F394EBCFFF20E1F30E9495
:1004D0007A068F2D8F5FDF91CF911F910F91FF9043
:1004E000089521968FE99FE00197F1F700C0000081
:1004F000D7CF80E0DF91CF911F910F91FF900895AA
:10050000CF93DF9386EA90E00E94A401CAE0D0E096
:100510000E942F06843160F48FE39CE90197F1F784
:1005200000C000002197A1F78DEFDF91CF910895D2
:100530008EE893E064E170E00E945D06809199038B
:10054000813361F0823331F0853361F083E6DF91EE
:10055000CF91089582E0DF91CF91089581E0DF91FE
:10056000CF91089585E0DF91CF910895CF93DF93E8
:100570000E947A068FEA90E00E94A401CEE1D0E0CA
:100580000E942F06863150F48FE39CE90197F1F722
:1005900000C000002197A1F78DEF0CC08EE893E01A
:1005A00066E170E00E945D0681E090919B039133CB
:1005B00009F080E0DF91CF9108950F931F93CF93BF
:1005C000DF938C010E947A068AEB90E00E94A401DE
:1005D00088EE93E00E944702882331F48DEFDF918B
:1005E000CF911F910F9108958EE893E062E270E041
:1005F0000E94500AEC012196CE0162E270E00E9456
:10060000500AFC011082C801BE010E945B0AD80199
:100610000D900020E9F711978A2F801BDF91CF9171
:100620001F910F910895CF93DF93EC010E947A06FA
:1006300083EC90E00E94A40188EE93E00E944702C0
:10064000882371F0E82FF0E0E357FC4F1082CE01D1
:1006500060E973E00E945B0A81E0DF91CF91089529
:100660008DEFFBCFCF93DF93EC010E947A068AECEB
:1006700090E00E94A40188EE93E00E944702882344
:1006800071F0E82FF0E0E357FC4F1082CE0160E9F3
:1006900073E00E945B0A81E0DF91CF9108958DEFB6
:1006A000FBCFCF93DF93EC010E947A0681ED90E0BF
:1006B0000E94A40188EE93E00E944702882371F013
:1006C000E82FF0E0E357FC4F1082CE0160E973E0C1
:1006D0000E945B0A81E0DF91CF9108958DEFFBCFFF
:1006E0000F931F93CF93DF93CDB7DEB761970FB60C
:1006F000F894DEBF0FBECDBF898B0E947A0600D072
:1007000000D000D0EDB7FEB731968E010F5F1F4FBE
:10071000ADB7BEB712961C930E93119728ED30E03B
:10072000338322838989848315820E94820A8DB74C
:100730009EB706960FB6F8949EBF0FBE8DBFC80138
:100740000E94A40188EE93E00E9447028823C9F02A
:10075000E82FF0E0E357FC4F108280E993E063EA72
:1007600070E00E943D0A009771F481E061960FB637
:10077000F894DEBF0FBECDBFDF91CF911F910F91D7
:1007800008958DEFF3CF8EEFF1CF0F931F93CF939B
:10079000DF9300D000D0CDB7DEB78C018AEF90E0B8
:1007A0000E944702882371F1E82FF0E0E357FC4FE5
:1007B000108280E993E063EE70E046E050E00E9432
:1007C000620A0097E9F48EE893E06CE270E00E9420
:1007D000500ABC016F5F7F4FCE0101960E945B0AF9
:1007E000CE0101960E941F0AF801808381E00F90DC
:1007F0000F900F900F90DF91CF911F910F9108955F
:100800008EEFF5CF8DEFF3CFAF92BF92CF92DF9205
:10081000FF920F931F93CF93DF93CDB7DEB760970F
:100820000FB6F894DEBF0FBECDBFF82E6B015A0194
:100830000E947A0600D000D000D0EDB7FEB7319606
:100840008E010F5F1F4FADB7BEB712961C930E936C
:1008500011978AEE90E093838283F48215820E943E
:10086000820AEDB7FEB736960FB6F894FEBF0FBEFC
:10087000EDBFC8010E94A40188EE93E00E944702E8
:10088000882309F444C0E82FF0E0E357FC4F1082BE
:1008900080E993E065EF70E00E943D0A009789F4DB
:1008A00084E660960FB6F894DEBF0FBECDBFDF9131
:1008B000CF911F910F91FF90DF90CF90BF90AF909D
:1008C000089580E993E063EA70E00E943D0A009792
:1008D00011F485E6E6CF80E993E065E071E046E05B
:1008E00050E00E94620A0097A1F088EE93E00E9417
:1008F0004702882361F0E82FF0E0E357FC4F1082B5
:10090000C6016FE873E00E945B0A81E0CACF8DEFF9
:10091000C8CF8EE893E062E270E00E94500A019630
:1009200062E270E00E94500A019662E270E00E946A
:10093000500A8C010F5F1F4FC80162E270E00E94F5
:10094000500ADC011C92C501B8010E945B0ACDCFA0
:10095000AF92BF92CF92DF92EF92FF920F931F93CD
:10096000CF93DF93CDB7DEB769970FB6F894DEBFAC
:100970000FBECDBF6C018B015A010E947A0600D0D8
:1009800000D000D0EDB7FEB731967E010894E11C8F
:10099000F11CADB7BEB71296FC92EE9211978CE0A7
:1009A00091E093838283D582C4820E94820A22E2EC
:1009B0002987F70101900020E9F73197EE198E2F72
:1009C00090E0F701E80FF91F20838C0F9D1FFC01B9
:1009D00012828DB79EB706960FB6F8949EBF0FBED3
:1009E0008DBFC7010E94A4018FEF91EEA4E081505A
:1009F0009040A040E1F700C00000C8010E945106ED
:100A00008AE10E942B060E942F06F8010190002027
:100A1000E9F7E01BF10B349690E08E179F0798F3EF
:100A20008EE893E0BF010E945D0680E797E10E9497
:100A30004702882349F1E82FF0E0E357FC4F10828A
:100A400080E993E068E171E045E050E00E94620ACD
:100A50000097E1F486E993E00E941F0AD5018C9388
:100A60000E947A0681E069960FB6F894DEBF0FBE49
:100A7000CDBFDF91CF911F910F91FF90EF90DF904D
:100A8000CF90BF90AF9008958DEFEDCF0E947A0682
:100A90008EEFE9CF0F931F93CF93DF93CDB7DEB7E0
:100AA00060970FB6F894DEBF0FBECDBF0E947A06E6
:100AB00000D000D000D0EDB7FEB731968E010F5FA9
:100AC0001F4FADB7BEB712961C930E9311978EE1D0
:100AD00091E09383828381E090E0958384830E94F8
:100AE000820A8DB79EB706960FB6F8949EBF0FBECA
:100AF0008DBFC8010E94A40188EE93E00E944702C6
:100B00008823C9F0E82FF0E0E357FC4F108280E91A
:100B100093E063EA70E00E943D0A009771F481E07F
:100B200060960FB6F894DEBF0FBECDBFDF91CF91B8
:100B30001F910F9108958DEFF3CF8EEFF1CF2FEF2F
:100B400020934D0320934C0390BD89B986E880BD66
:100B500088E98AB9789408951F920F920FB60F9280
:100B600011242F933F934F938F939F93EF93FF9372
:100B70004CB180914D038F3389F180914D032091C9
:100B80004C03992787FD90950196332727FD3095D3
:100B90008217930739F180914D038F3391F1809142
:100BA0004D038F5F80934D03E0914D03FF27E7FDD9
:100BB000F095E25BFC4F408380914C038F3F11F432
:100BC00010924C03FF91EF919F918F914F913F9124
:100BD0002F910F900FBE0F901F90189580914C038E
:100BE000882359F680914C038F5F80934C0380914A
:100BF0004C03803481F610924C0380914D038F3367
:100C000071F610924D03D0CF80914C038F3FD9F0F5
:100C1000E0914C03FF27E7FDF095E25BFC4F8081FC
:100C200020914C0390914D03291779F090914C033A
:100C30009F5F90934C0390914C03903409F008957A
:100C400010924C03089580E008959FEF90934D0318
:100C500090934C0308955D9BFECF8CB908958091CD
:100C60004C038F3FD1F090914C0380914D03981726
:100C70006CF090914C0380914D03891784F480911E
:100C80004D0390914C038F5B891B089580914D0318
:100C900090914C038F5F891B089580E0089581E057
:100CA0000895FC018081882339F031965D9BFECF49
:100CB0008CB981918823D1F70895EF92FF920F9319
:100CC0001F93CF93DF93EB01209769F07C0100E045
:100CD00010E00E940406F70181937F010F5F1F4F10
:100CE0000C171D07B1F7DF91CF911F910F91FF9066
:100CF000EF90089502C00E9404060E942F068823E8
:100D0000D1F70895FFCFCF93DF930F92CDB7DEB722
:100D1000662361F169E271E0AE014F5F5F4F0E94AF
:100D2000A8048130F9F08D3F49F181E060E00E9434
:100D3000790080E060E00E943A0185EA91E00E943B
:100D4000A50080E061E00E943A0182EC91E00E94FF
:100D5000A5008FEF9BE7A2E981509040A040E1F70A
:100D600000C000000F90DF91CF91089560E671E020
:100D7000AE014F5F5F4F0E94A804D3CF81E060E0D7
:100D80000E94790080E060E00E943A0185EA91E0EB
:100D90000E94A50080E061E00E943A0187EB91E0AB
:100DA0000E94A5008FEF9BE7A2E981509040A040F0
:100DB000E1F700C000000F90DF91CF910895CF932D
:100DC000DF93CDB7DEB7C25DD1400FB6F894DEBF7A
:100DD0000FBECDBF80E00E9454018AEC91E00E94DA
:100DE000A50080E061E00E943A018BED91E00E9455
:100DF000A5002FEF33ED40E3215030404040E1F7B4
:100E000000C0000081E060E00E94790086EE91E081
:100E10000E94A5000E941B022FEF33ED40E32150FA
:100E200030404040E1F700C000008E3F09F457C059
:100E30008F3F5CF48D3F69F480E061E00E943A01ED
:100E40008DE092E00E94A500FFCF8F3F59F08130E6
:100E500091F080E061E00E943A018BE292E00E9412
:100E6000A500FFCF80E061E00E943A0189E192E0B5
:100E70000E94A500FFCF80E061E00E943A0187EF69
:100E800091E00E94A5008FEF93EDA0E38150904088
:100E9000A040E1F700C000000E944A05082F81E051
:100EA00060E00E9479008CEF91E00E94A5002FEF96
:100EB00033ED40E3215030404040E1F700C00000F6
:100EC0000E3FB1F0013031F10D3FD9F080E061E02B
:100ED0000E943A018BE292E00E94A500FFCF80E0E1
:100EE00061E00E943A0186E292E00E94A500FFCFF5
:100EF00080E061E00E943A0186E292E00E94A50053
:100F0000FFCF80E061E00E943A018DE092E00E9414
:100F1000A500FFCF80E061E00E943A0187EF91E0F9
:100F20000E94A5008FEF93EDA0E381509040A04078
:100F3000E1F700C0000081E060E00E947900CE018E
:100F400002960E9413038D3F09F44DC286E492E09D
:100F50000E94A50080E061E00E943A01CE01029665
:100F60000E94A5002FEF33ED40E321503040404078
:100F7000E1F700C0000081E060E00E947900CE014E
:100F80008A589F4F0E9432038D3F09F427C283E5A0
:100F900092E00E94A50080E061E00E943A01CE014B
:100FA0008A589F4F0E94A5008FEF93EDA0E38150D8
:100FB0009040A040E1F700C0000081E060E00E94A6
:100FC0007900CE018A5B9F4F0E9451038D3F09F447
:100FD00000C281E692E00E94A50080E061E00E94EC
:100FE0003A01CE018A5B9F4F0E94A5002FEF33ED9F
:100FF00040E3215030404040E1F700C0000081E074
:1010000060E00E94790088E692E00E94A5008FEFE0
:1010100093EDA0E381509040A040E1F700C00000B4
:101020000E94B602882309F4CCC18D3F09F479C02F
:10103000813089F480E061E00E943A0187E892E023
:101040000E94A5002FEF33ED40E321503040404097
:10105000E1F700C0000081E060E00E94790080E0DC
:1010600060E00E943A0188E992E00E94A50008E54C
:1010700012E0EE2425C080E061E00E943A0189EA96
:1010800092E00E94A5008E2D61E00E943A018AEC58
:1010900092E00E94A50081E161E00E943A01E394A0
:1010A00030E1E31609F44FC08FEF90E7A2E08150E2
:1010B0009040A040E1F700C0000001501040D1F185
:1010C0000E948002982F8230B1F281E060E0CE521F
:1010D000DE4F9883C25DD1400E947900CE52DE4F30
:1010E0009881C25DD140913049F58DEC92E00E942B
:1010F000A5002FEF33ED40E3215030404040E1F7B1
:1011000000C0000081E060E00E947900CE01869678
:101110000E94DD028823C9F489E392E00E94A500C1
:10112000FFCF80E061E00E943A0189E392E00E94F3
:10113000A500FFCF81E060E00E9479008BED92E096
:101140000E94A500FFCFEE24AFCFCE0186960E946D
:10115000A5008FEF93EDA0E381509040A040E1F710
:1011600000C0000080E090E00E94820C8C0182E0D0
:1011700090E00E94820C6C0184E090E00E94820C5E
:101180004C0186E090E00E94820C7C019FEF0F3FB3
:10119000190701F580E090E060E070E00E94880CA3
:1011A00082E090E060E070E00E94880C84E090E0D3
:1011B00060E070E00E94880C86E090E060E070E003
:1011C0000E94880CEE24FF2488249924CC24DD245A
:1011D00000E010E00E947A0681E060E00E94790061
:1011E00080E060E00E943A018DEE92E00E94A5004E
:1011F00080E061E00E943A0187EF92E00E94A50042
:1012000082E060E00E943A01C80164E070E00E9460
:10121000D60089E060E00E943A01C60164E070E017
:101220000E94D60082E061E00E943A01C40164E0BD
:1012300070E00E94D60089E061E00E943A01C70197
:1012400064E070E00E94D600BB24CE0101960E94AB
:10125000C503813091F08FE060E0BB2009F47CC0D1
:101260000E943A0181E093E00E94A500BB24CE01D8
:1012700001960E94C503813071F78FE060E00E9403
:101280003A0187E093E00E94A5002FEF33ED40E3A1
:10129000215030404040E1F700C000008981BE018C
:1012A0006A557F4FAE014E5E5F4F0E94040481304D
:1012B00009F05BC0CE018A559F4F6AE073E00E943F
:1012C0003D0A009709F463C0CE018A559F4F61E142
:1012D00073E00E943D0A009709F45FC0CE018A5571
:1012E0009F4F68E173E00E943D0A009709F462C0D5
:1012F000CE018A559F4F6FE173E00E943D0A00972F
:1013000009F052C00894E11CF11C86E090E0B7019E
:101310000E94880CCE01429661E00E9483068FEF06
:101320009BE7A2E981509040A040E1F700C0000097
:1013300089810E947003813009F44ECF88E393E0E5
:101340000E94A5008FEF9BE7A2E981509040A0404A
:10135000E1F700C0000040CF0E943A0184E093E032
:101360000E94A500BB24B39470CF81E060E00E948E
:10137000790086E293E00E94A5002FEF3BE742E967
:10138000215030404040E1F700C00000D1CF0F5F56
:101390001F4F80E090E0B801BBCF0894C11CD11C66
:1013A00082E090E0B601B4CFCE01429660E00E94A8
:1013B0008306B5CF0894811C911C84E090E0B401B1
:1013C000A7CF61E00E943A0189E792E00E94A50060
:1013D000FFCF89E392E00E94A500FFCF89E392E06E
:1013E0000E94A500FFCF89E392E00E94A500FFCFF5
:1013F00097FB092E07260AD077FD04D00CD006D023
:1014000000201AF4709561957F4F0895F6F7909536
:1014100081959F4F0895AA1BBB1B51E107C0AA1FCE
:10142000BB1FA617B70710F0A61BB70B881F991F85
:101430005A95A9F780959095BC01CD010895FC01BE
:1014400088279927E89421912032E9F3293010F078
:101450002E30C8F32B3241F02D3239F4689404C099
:101460000E947A0A820F911D219120532A30C0F3E5
:101470001EF4909581959F4F0895FB01DC018D919D
:1014800081341CF08B350CF4805E619161341CF06A
:101490006B350CF4605E861B611189F3990B08951E
:1014A000FC018191861721F08823D9F799270895A7
:1014B0003197CF010895FB01DC0101900D920020CE
:1014C000E1F70895FB01DC014150504088F08D9117
:1014D00081341CF08B350CF4805E619161341CF01A
:1014E0006B350CF4605E861B611171F3990B0895E6
:1014F000881BFCCF7AE0979F902D879F802D910DC0
:1015000011240895AEE0B0E0E8E8FAE00C94580D3C
:101510000D891E8986E08C831A8309838FEF9FE7EC
:101520009E838D83AE01475E5F4FCE0101966F892A
:10153000788D0E94A40AEF81F885E00FF11F1082D8
:101540002E96E4E00C94740DADE0B0E0EAEAFAE027
:101550000C944A0D3C017D876C875A01FC0117826F
:101560001682838181FFC8C12E010894411C511C41
:10157000F3019381EC85FD8593FD859193FF819126
:10158000FD87EC87882309F4B3C1853241F493FDCC
:10159000859193FF8191FD87EC87853229F490E056
:1015A000B3010E94A30CE4CFFF24EE2410E010321C
:1015B000B0F48B3269F08C3228F4803251F08332EF
:1015C00071F40BC08D3239F0803349F411602CC0B6
:1015D0001260146029C0186027C0106125C017FD73
:1015E0002EC0282F20532A3098F416FF08C08F2DC4
:1015F000880FF82EFF0CFF0CF80EF20E15C08E2D82
:10160000880FE82EEE0CEE0CE80EE20E10620CC015
:101610008E3221F416FD6CC1106406C08C3611F4B4
:10162000106802C0883659F4EC85FD8593FD8591DC
:1016300093FF8191FD87EC87882309F0B8CF982F1D
:101640009554933018F09052933038F424E030E001
:10165000A20EB31E3FE339830FC0833631F08337C8
:1016600081F0833509F05AC022C0F5018081898359
:1016700022E030E0A20EB31E21E0C22ED12C4201A6
:1016800014C092E0292E312C2A0C3B1CF5018080DD
:10169000918016FF03C06F2D70E002C06FEF7FEFE7
:1016A000C4010E94980C6C0151011F7715C082E0A3
:1016B000282E312C2A0C3B1CF5018080918016FFCE
:1016C00003C06F2D70E002C06FEF7FEFC4010E9476
:1016D0008D0C6C011068510113FD1CC006C080E226
:1016E00090E0B3010E94A30CEA948E2D90E0C816FE
:1016F000D906A8F30FC0F40117FD859117FF81915A
:101700004F0190E0B3010E94A30CE110EA94089409
:10171000C108D108C114D10471F7E7C0843611F0B3
:10172000893651F5F50117FF07C080819181A281AB
:10173000B38124E030E008C080819181AA2797FD21
:10174000A095BA2F22E030E0A20EB31E012F0F7633
:10175000B7FF08C0B095A095909581959F4FAF4F6A
:10176000BF4F0068BC01CD01A2012AE030E00E9419
:10177000CF0CD82ED4183FC0853721F41F7E2AE025
:1017800030E020C0197F8F36A9F0803720F48835EB
:1017900009F0AEC00BC0803721F0883709F0A8C02F
:1017A00001C0106114FF09C0146007C014FF08C015
:1017B000166006C028E030E005C020E130E002C03D
:1017C00020E132E0F50117FF07C06081718182815D
:1017D000938144E050E006C06081718180E090E038
:1017E00042E050E0A40EB51EA2010E94CF0CD82EFC
:1017F000D418012F0F7706FF09C00E7FDF1430F4D5
:1018000004FF06C002FD04C00F7E02C01D2D01C0F2
:101810001F2D802F90E004FF0CC0FE01ED0DF11D87
:101820002081203311F4097E09C002FF06C01E5F2B
:1018300005C086789070009709F01F5F802E99246C
:1018400003FD12C000FF0DC0FD2C1E1550F4FE0C50
:10185000F11A1E2D06C080E290E0B3010E94A30C95
:101860001F5F1E15C0F304C01E1510F4E11A01C05D
:10187000EE2484FE0FC080E390E0B3010E94A30C2D
:1018800082FE1FC081FE03C088E590E010C088E79B
:1018900090E00DC0C40186789070009791F081FCB3
:1018A00002C080E201C08BE207FD8DE290E0B3014F
:1018B0000E94A30C06C080E390E0B3010E94A30C39
:1018C000FA94DF14C0F3DA94F201ED0DF11D80817A
:1018D00090E0B3010E94A30CDD20A9F706C080E2CE
:1018E00090E0B3010E94A30CEA94EE20C1F740CE31
:1018F000F3018681978102C08FEF9FEF2D96E2E181
:101900000C94660DA8E1B0E042E050E00C942F0D7D
:101910000E943D0D272F0C943E0DFC010590615057
:1019200070400110D8F7809590958E0F9F1F0895F5
:10193000FC016150704001900110D8F7809590959E
:101940008E0F9F1F08950F931F93CF93DF938C01EA
:10195000EB018B8181FF1BC082FF0DC02E813F8177
:101960008C819D812817390764F4E881F9810193FE
:10197000F983E88306C0E885F985802F09950097EB
:1019800031F48E819F8101969F838E8302C00FEF79
:101990001FEFC801DF91CF911F910F910895FA01B8
:1019A000AA27283051F1203181F1E8946F936E7F9E
:1019B0006E5F7F4F8F4F9F4FAF4FB1E03ED0B4E08F
:1019C0003CD0670F781F891F9A1FA11D680F791FD0
:1019D0008A1F911DA11D6A0F711D811D911DA11DE1
:1019E00020D009F468943F912AE0269F11243019F1
:1019F000305D3193DEF6CF010895462F4770405D8C
:101A00004193B3E00FD0C9F7F6CF462F4F70405D3A
:101A10004A3318F0495D31FD4052419302D0A9F795
:101A2000EACFB4E0A6959795879577956795BA958F
:101A3000C9F700976105710508959B01AC010A2E55
:101A400006945795479537952795BA95C9F7620F2C
:101A5000731F841F951FA01D0895DC01CB01FC019D
:101A6000E199FECF06C0FFBBEEBBE09A31960DB206
:101A70000D9241505040B8F70895262FE199FECFBE
:101A80009FBB8EBB2DBB0FB6F894E29AE19A0FBEB6
:101A9000019608952F923F924F925F926F927F929C
:101AA0008F929F92AF92BF92CF92DF92EF92FF926E
:101AB0000F931F93CF93DF93CDB7DEB7CA1BDB0B1A
:101AC0000FB6F894DEBF0FBECDBF09942A883988BF
:101AD00048885F846E847D848C849B84AA84B984C6
:101AE000C884DF80EE80FD800C811B81AA81B981D2
:101AF000CE0FD11D0FB6F894DEBF0FBECDBFED01E6
:061B00000895F894FFCFE8
:101B06000000040E0400000000040E1F0E04000076
:101B1600040404041F0E04000A15110A0400000040
:101B26000A1F1F0E04000000000000000000000055
:101B3600000000000000000000000000000000009F
:101B46004154004F4B0041542B435245473F0041FF
:101B5600542B43534D494E533F0041542B4353504E
:101B66004E3F0041542B47534E0041542B474D499D
:101B76000041542B474D4D0041542B434D47443DA6
:101B86002564002B434D54493A0041542B434D479D
:101B9600523D2564002B434D53204552524F523A35
:101BA60020353137002B434D47523A0041542B43E1
:101BB6004D47533D20257300434D47533A0041544A
:101BC6002B434D47463D256400596F757220766F4D
:101BD600746520686173206265656E207375636342
:101BE60065737366756C6C79207265676973746565
:101BF6007265642C205468616E6B2021203A29009E
:101C0600496E76616C696420766F74652021205078
:101C16006C656173652073656E6420564F5445206C
:101C2600782C20776865726520782063616E206263
:101C36006520412C422C43206F7220442E5468614B
:101C46006E6B73210043616E27742053656E6420AA
:101C56005265706C79210054696D65206F7574202A
:101C660021004661696C202021004D736720426186
:101C760073656420566F74696E6700427920303749
:101C8600312042455800496E697469616C697A6908
:101C96006E67202E2E2E004F4B2021005365742098
:101CA60054657874204D6F6465202E2E004E6F208B
:101CB600726573706F6E736500496E762072657318
:101CC600706F6E7365004661696C00556E6B6E6F62
:101CD600776E204572726F7200436F6D6D2045728C
:101CE600726F7220210044657669636520494D450F
:101CF600493A004D616E7566616374757265723A34
:101D0600004D6F64656C3A00436865636B696E6786
:101D16002053494D43617264004E6F2053494D2054
:101D26004361726420210053494D2043617264204F
:101D360050726573656E7400536561726368696E8F
:101D4600674E6574776F726B002530253025302518
:101D560030253025302530253025302530253025D5
:101D6600302530253025302530002531004E65746C
:101D7600776F726B20466F756E640043616E7420D8
:101D8600436F6E6E7420746F204E572100413D20C4
:101D960020202020423D00433D2020202020443D9D
:101DA60000253300253400253200564F5445204186
:101DB60000564F5445204200564F54452043005686
:101DC6004F54452044004572722052656164696E25
:101DD60067204D73672021004572722044656C654B
:0C1DE60074696E67204D736720210000B7
:00000001FF
